:020000040800F2
:10000000F00C0020C900000869050008150500086B
:1000100000000000000000000000000000000000E0
:10002000000000000000000000000000350B000888
:100030000000000000000000D50500087D0C00084D
:10004000F900000800000000F9000008F9000008AD
:10005000F9000008F9000008F9000008F90000089C
:1000600000000000F9000008F9000008F90000088D
:10007000F9000008190D0008F90000080000000050
:10008000F90000080000000000000000F90000086E
:10009000F9000008F9000008F9000008F90000085C
:1000A000F9000008F9000008F9000008B50E000882
:1000B000CD0E00080348854600F05AF80048004776
:1000C000D1110008F00C00200C4880F308880C487F
:1000D0000168090E0B4A914205D10B480B4901609A
:1000E0000B480C4901600C4880470C480047FEE76C
:1000F000FEE7FEE7FEE7FEE7FEE70000F00C00206B
:10010000040000001F000000181002400100000061
:100110000000014000000000B90C0008B500000814
:1001200030B50B46014600202022012409E00D468F
:10013000D5409D4205D31D469540491B2546954017
:1001400040191546521E002DF1DC30BD03460B430D
:100150009B0703D009E008C9121F08C0042AFAD27D
:1001600003E00B780370401C491C521EF9D2704703
:10017000064C0125064E05E0E36807CC2B430C3CFA
:1001800098471034B442F7D3FFF798FF6413000880
:100190008413000870B58C180578401C6B075B0F42
:1001A00001D10378401C2A1106D10278401C03E0DB
:1001B00006780E70401C491C5B1EF9D12B0705D434
:1001C0000023521E0DD40B70491CFAE70378401C23
:1001D000CB1A921C03E01D780D70491C5B1C521E4B
:1001E000F9D5A142D8D3002070BD00000149C860F4
:1001F0007047000000200240F0B50B2706463F0480
:10020000384600F07DF804280FD1084C20690225FB
:1002100028432061666120694021084320613846F7
:1002200000F06EF82169A9432161F0BD0020024071
:1002300008490420CA68D20701D001207047CA6863
:10024000D20601D502207047C9684907FBD50320B3
:1002500070470000002002400248016980221143DB
:1002600001617047002002400449102200280868FC
:1002700001D0104300E09043086070470020024026
:10028000F8B5064600200B273F0400900D4638467F
:1002900000F036F8042815D10B4C206901210843E1
:1002A00020613580384600F02BF8042806D1B61CB2
:1002B000290C00963180384600F022F8216949085F
:1002C00049002161F8BD000000200240034A116886
:1002D00049084900014311607047000000200240B6
:1002E00004480169090603D5034941600349416097
:1002F000704700000020024023016745AB89EFCD25
:1003000000B50346FFF794FF02E0FFF791FF5B1E85
:10031000012803D0002B00D1052000BD002BF4D113
:10032000FAE70000F7B584B00446002002900420EC
:100330006946087101200870900007197F1EFFF7B9
:10034000CFFF184802903520FFF750FF2546059E45
:1003500007E031682846FFF793FF694608712D1DB5
:10036000361DBD4203D2684600790428F1D0002131
:10037000059807E0226803689A4201D06A46117026
:10038000001D241DBC4203D26A461278002AF1D116
:10039000FFF762FF68460078002800D0012007B010
:1003A000F0BD000000400108FEB5032040020090AF
:1003B00002256846057100268671032747710124CE
:1003C000C47109206946C00600F05CF809210122C9
:1003D000C80600F08FF8092001220A21C00600F0AB
:1003E00089F80C2000906846057186714771C471C8
:1003F00009206946C00600F045F8092001220221C3
:10040000C00600F077F8092001220321C00600F0A1
:1004100071F8FEBD092110B5C906884202D101213B
:100420004C0404E01249884209D10121040220460B
:1004300000F070F90021204600F06CF910BD0D4964
:10044000884202D101210402F1E70B49884202D11E
:1004500001210C05EBE70949884202D10121440240
:10046000E5E707498842E9D101218C05DFE7000073
:100470000004004800080048000C00480010004834
:1004800000140048F0B50022032501230C689340B6
:100490001C409C422AD10C79012C01D0022C12D193
:1004A000876854002E46A640B74387604E79A64021
:1004B00084682643866084889C43848084888B7902
:1004C00093401C438480066853002C469C40A643FE
:1004D00006600E7907689E403E430660C668A643E4
:1004E000C660CC799C40C3681C43C460521C102A6F
:1004F000CBD3F0BD4B07DB0E9A40C90810B589007D
:100500000818016A0F249C40A1430162016A11434B
:10051000016210BDFEE7000010B50F4C20680068B6
:100520000E49084001214907884211D100F078F9AD
:100530000B4800F0E9FC0920C006FFF76BFF2168BB
:100540004868A0606060096881F30888804710BD32
:1005500004490020087010BD880300200000FE2F11
:100560000044004098030020704708B51C206946ED
:1005700008700020487001208870684600F002F87A
:1005800008BD000030B5827801240178002A15D01A
:100590008B080E4A9B009A1813688907C90EFF251D
:1005A0008D40AB434578AD072D0E8D401D43156042
:1005B0000078C006C00E8440054804E0C806C00E9E
:1005C000844003488030046030BD000000E400E057
:1005D00000E100E070470000F3B581B0019800250C
:1005E000C07806282FD30021019800F053FC55282D
:1005F00001D0012124E00121019800F04BFC0746C5
:100600000221019800F046FC009001983E1DC07840
:10061000B04218D30024BF1C06E0641CE1B201986C
:1006200000F038FC4540E4B2BC42F6D3641CE1B2B1
:10063000019800F02FFC002D01D1F02804D0F1B278
:10064000019800F09DFBFEBD00982428FBD10024FA
:10065000214D05E0019800F0C9FB2855641CE4B267
:10066000B442F7D3E8782979000240181B4980B2D8
:100670004018012600282CD019491A4C401811D0D6
:10068000FF38C0380CD0632109018842DBD1042037
:1006900020706879A9790002401813490880FEBDCE
:1006A000072014E06879A9790002401880B20F4948
:1006B00060800988814209D10D48EA7906490280A3
:1006C00008310C48FFF742FD2670FEBD0520207062
:1006D000FEBD09480670FEBD86080020DBDAFFFF7C
:1006E000D4D4FFFF980300201A0000201600002039
:1006F00018000020A803002020000020044A002940
:10070000516901D0014300E081435161704700000D
:1007100000100240044A0029916A01D0014300E020
:10072000814391627047000000100240044A002992
:10073000D16901D0014300E08143D16170470000DD
:1007400000100240044A0029116901D0014300E071
:10075000814311617047000000100240044A0029E3
:10076000916901D0014300E081439161704700002D
:1007700000100240044A0029D16801D0014300E082
:100780008143D160704700000010024010B500F0B6
:1007900047F8012000F05EF900F0B6F901282DD1EC
:1007A000FFF762FD0120FFF791FD002000F080F9C6
:1007B0000121C904C81000F06DF9012000F05CF9B6
:1007C000192000F01BF90028FAD0022000F07AF975
:1007D00000F02EF90828FBD1002000F031F90020AC
:1007E00000F040F90120000700F076F901204007F1
:1007F00000F072F90320000700F06EF901210648AD
:10080000FFF794FF01214804FFF778FF0121034817
:10081000FFF7A4FF10BD000000000210014000001F
:10082000124801680122114301604168104A1140D9
:10083000416001680F4A1140016001680122920481
:100840009143016041683F22120491434160C16AB3
:1008500009090901C162016B074A11400163416B3B
:10086000490849004163002181607047001002403F
:100870000CB8FF08FFFFF6FEACFEF0FFF8B5574ED0
:100880000446706800210C22554D104006D0554A90
:10089000042805D0082805D00C281CD025601CE0B1
:1008A00022601AE07168706803238902DB030F0F6E
:1008B0001840BF1C00280AD0F06A0107090F104633
:1008C000491CFFF72DFC78430146216005E04648AE
:1008D00039464143F9E7454820607068444F0006B7
:1008E000000F3B5C20680246DA40626073685B057B
:1008F0005B0FFB5CDA40A260336BDB0501D43D4B40
:1009000005E073685B0401D4530800E09308E360DA
:10091000336B5F06384B03D4374F1237276100E043
:100920002361376BFF0601D4656100E06061376BBE
:10093000BF070ED0376BBF07BF0F012F0BD0376B30
:10094000BF07BF0F022F08D0376BFF43BF0706D08A
:1009500006E0A26104E0A06102E0A36100E0A561FD
:10096000376BBF03BF0F0FD0376BBF03BF0F012F14
:100970000CD0376BBF03BF0F022F09D0376BBF03FB
:10098000BF0F032F06D006E0E26104E0E06102E061
:10099000E36100E0E561376B3F03BF0F0FD0326BBF
:1009A0001203920F012A0CD0306B0003800F022833
:1009B00009D0306B0003800F032806D006E02262C6
:1009C00004E0206202E0236200E02562306B000652
:1009D00002D406486062F8BD6162F8BD00100240B2
:1009E00000127A00001BB70000093D00006CDC0219
:1009F00000000020809FD5000080000003460020FA
:100A00000A4A59090CD001290CD002290CD0516B8B
:100A1000DA06D20E012393400B4200D0012070472A
:100A20001168F5E7116AF3E7516AF1E70010024037
:100A3000024840680C210840704700000010024046
:100A4000034A5168F0239943014351607047000005
:100A500000100240024900228A708870704700002E
:100A600000100240034A516807231B0299430143C7
:100A7000516070470010024001220549120600280B
:100A8000086801D0104300E0904308607047000000
:100A90000010024010B5054A53687B24E403A343C9
:100AA0005360536808430343536010BD0010024075
:100AB000034AD16A090909010143D1627047000064
:100AC00000100240034A51688908890001435160BF
:100AD0007047000000100240010F0A4A01290AD0A5
:100AE0000229116B0BD003239B0499431163116BF3
:100AF000014311637047116B89088900F6E70323EE
:100B00001B04F2E70010024018B50020052424035E
:100B100000901120FFF772FF0099491C0091A1423B
:100B200001D00028F5D01120FFF768FF002800D081
:100B3000012018BD7047F0B585B0064655206D46BA
:100B40002870D81C687025200024A8702420E87024
:100B50002971214604E0505C6F18491C7871C9B2B4
:100B60009942F8D30120591D03E02A5C5440401CEF
:100B7000C0B28842F9D3E8184471F0210024817191
:100B8000DF1D05E0295D304600F052F9641CE4B237
:100B9000BC42F7D305B0F0BD1CB50023224800933A
:100BA00001930168012212041143016051000524E0
:100BB000240302680A400192009A521C0092019A92
:100BC000002A02D1009AA242F3D10168890328D5F4
:100BD00001210191154A112111604168416041686C
:100BE000416041687F22D2039143416041680922FC
:100BF0001204114341600168012212061143016091
:100C000001688901FCD54168890889004160416813
:100C100002221143416041680907890F0229FAD174
:100C20001CBD01931CBD00000010024000200240CA
:100C3000042204490428086902D0904308617047DF
:100C40001043FBE700E000E010B50420FFF7F0FFE1
:100C500008480749416108490722CB691B021B0A62
:100C600044042343CB6100218161026110BD000077
:100C70007FBB000000E000E004ED00E010B50B4A8F
:100C8000002310880124401C80B210805188491C28
:100C900089B25180642802D1054813800470642908
:100CA00002D104485380047010BD000022000020CF
:100CB000960300209503002010B514480168012216
:100CC000114301604168124A114041600168114AB4
:100CD0001140016001680122920491430160416862
:100CE0003F22120491434160C16A09090901C162AE
:100CF000016BFF22543291430163416B4908490063
:100D0000416300218160FFF747FF10BD00100240E2
:100D10000CB8FFF8FFFFF6FE10B50121014800F006
:100D200003F810BD002C0140C94301827047000048
:100D300030B587B00091002104460C20019102914A
:100D40000391059104906946204600F071F9012154
:100D5000204600F0CEF8084D2046294600F0C4F8A1
:100D600001220649204600F04EF90122294620467C
:100D700000F049F907B030BD060106000501050085
:100D800070B50446C0780D46174EE368A84215D3E7
:100D900000223146184600F036F9E0780122401B67
:100DA000E0703146E06800F02EF9A0782178401913
:100DB000814201D8401A80B2A07070BDA178081895
:100DC0002178814201D8401A80B2A07000223146B9
:100DD000184600F018F90020E07001223146E06862
:100DE00000F011F970BD00000501050070B5044662
:100DF000816880780D5CE178002915D0401CC0B274
:100E0000A0702178884201D10020A070074E0022F6
:100E10003146E06800F0F7F8E0780122401EE0700B
:100E20003146E06800F0EFF8284670BD0501050086
:100E300070B50446C07822780D469042FDD0144E1D
:100E400000223146E06800F0DEF8E078002805D1A5
:100E50008021E06800F0B4F8012814D06178A0681F
:100E600045546078401CC0B260702178884201D13E
:100E700000206070E078401CE07001223146E0689C
:100E800000F0C1F870BD2946E06800F029F9F4E7E8
:100E900006010600C2788A4207D382785118027888
:100EA0008A4203D8891A89B200E000218068405C38
:100EB0007047000010B5034800F016F9024800F032
:100EC00047F910BD280000203800002010B5034865
:100ED00000F00AF9024800F03BF910BD480000207C
:100EE0005800002001627047090C01228A4002620A
:100EF00070470029016802D00122114301E049082E
:100F00004900016070470000254910B5884207D1AB
:100F100001218C032046FFF72DFC0021204627E00D
:100F20002049884202D101214C0404E01E49884234
:100F300009D101218C042046FFF704FC0021204642
:100F4000FFF700FC10BD1949884202D10121CC04F1
:100F5000F1E71749884202D101210C05EBE7154959
:100F6000884208D101212020FFF704FC0021202025
:100F7000FFF700FC10BD1049884206D10121402036
:100F8000FFF7F8FB00214020F2E70C498842F1D13D
:100F900001218020FFF7EEFB00218020E8E7000020
:100FA000003801400044004000480040004C004030
:100FB000005000400014014000180140001C014096
:100FC0000246D26900200A4200D00120704730B5A5
:100FD0000A04130E01252A4600248A40012B0ED054
:100FE000022B0ED08368090C1340C0698D40284045
:100FF000002B02D0002800D00124204630BD036819
:10100000F1E74368EFE710B50B041C0E01238B409A
:10101000022C02D0032C02D002E0001D00E00830B8
:101020000168002A01D0194300E09943016010BD16
:1010300030B5044600688BB00D4640084000206083
:101040006068032109038843A9680143616020683F
:101050001C49EA680840696811432A690243114340
:101060002160A06803210902884369690143A160E6
:101070006846FFF703FC1448844201D106980AE051
:101080001248844201D1079805E01148844201D1F9
:10109000089800E0029821680904296800D54000FA
:1010A000FFF73EF82A6852088A4200D8401C21689F
:1010B000090404D50107074A490F10400843A081DD
:1010C0000BB030BDF3E9FFFF0038014000440040A1
:1010D00000480040F0FF0000808CC005C00D704744
:1010E000C905C90D0185704710B50446C0680821BF
:1010F000FFF766FF002803D00821E068FFF7F2FE43
:101100001249E068FFF763FF00281DD02021E06846
:10111000FFF7E8FEE068FFF7DFFFE168C969627882
:10112000A16888546078401CC1B261702078814207
:1011300001D300216170E178491CC9B2E17081429C
:1011400002D30120E070207110BD000005010500F0
:1011500010B50446C0680F49FFF739FF002817D0C3
:101160004021E068FFF7BEFEE078002810D0401E66
:10117000E070A178A068415CE068FFF7B1FFA0785B
:10118000401CC0B2A0702178884201D30020A0701A
:1011900010BD00000601060030B47446641E2578B8
:1011A000641CAB4200D21D46635D5B00E31830BC9B
:1011B000184702E008C8121F08C1002AFAD1704778
:1011C0007047002001E001C1121F002AFBD17047C7
:1011D000FFF7DCFAFFF7C9F9FFF7E6F8FFF734FD90
:1011E000E12149025448FFF7A3FD5448FFF746FBAD
:1011F000534F544C544E002554495548FFF7ECF9D1
:1012000054480178012908D10570207830700123F5
:101210004D4A47214D48FFF78EFC20780300FFF729
:10122000BBFF087046377F067F558105E4E7FFF76F
:1012300057F83520FEF7DAFF102038710006810DCF
:1012400045484058FEF7D8FF3870387804280AD04F
:10125000052020700120307003463B4A44213B4862
:10126000FFF769FC05E03879401CC0B238714028AE
:10127000E4D3FEF7F1FF02202070BD70FD803570D1
:1012800075700223304A41213048FFF754FCB3E720
:1012900032480178012903D10570B878401CB87034
:1012A000B8780A28A8D1BD7006202070A4E7388934
:1012B000254982080C31F868FFF734F878703989CD
:1012C000F8684018F8607878012804D0022020706F
:1012D000BD70F88809E0F888401C80B2F8807989F0
:1012E000884206D002212170BD70010A31707070F1
:1012F000C7E703202070012030700346124A4221C4
:10130000C2E717480178012903D10570F878401C1D
:10131000F870F8780A2889D1FD70FFF7FDF86BE7BF
:10132000257069E7882030700123074A4521074866
:10133000FFF701FC0820B8E700440040A8040020A3
:1013400010000020980300209C030020580000207B
:10135000480000209403002068000020950300202E
:101360009603002084130008000000209C03000066
:1013700094010008401500089C0300205409000057
:10138000C2110008412D0102030404B70607080931
:1013900004011240820872E113D004122075380152
:1013A00040FA4BB1051069201BAB0610124479209E
:1013B0004B8C07103112081A040429021A0C041A63
:1013C00010041A14041A18041A1C041A20041A24EB
:1013D000041A28041A2C041A30041A34041A380483
:1013E0001A3C04298C1A44041A48041A4C041A5052
:1013F000041A54041A58041A5C041A60041A640487
:101400001A68041A6C041A70041A74041A78041AFC
:101410007C041A80041A84041A88041A8C041A9012
:10142000041A94041A98041A9C041AA0041AA40416
:101430001AA8041AAC041AB0041AB4041AB8041A8C
:10144000BC041AC0041AC4041AC8041ACC041AD062
:10145000041AD4041AD8041ADC041AE0041AE404A6
:101460001AE8041AEC041AF0041AF4041AF8041A1C
:10147000FC04111301081A04041A08041A0C041AB3
:1014800010041A14041A18041A1C041A20041A242A
:10149000041A28041A2C041A30041A34041A3804C2
:1014A0001A3C041A40041A44041A48041A4C041A38
:1014B00050041A54041A58041A5C041A60041A647A
:1014C000041A68041A6C041A70041A74041A780452
:1014D0001A7C041A80041A84041A88041A8C041AC8
:1014E00090041A94041A98041A9C041AA0041AA4CA
:1014F000041AA8041AAC041AB0041AB4041AB804E2
:101500001ABC041AC0041AC4041AC8041ACC041A57
:10151000D0041AD4041AD8041ADC041AE0041AE419
:10152000041AE8041AEC041AF0041AF4041AF80471
:101530001AFC04111A020401FF011C1240021008D7
:04000005080000B53A
:00000001FF
